S0160000537465705F53657175656E6365722E7372656368
S11300000C942A000C9446010C9464010C9447004F
S11300100C946E010C9447000C9447000C94470018
S11300200C9448060C9447000C9447000C94470029
S11300300C9447000C9447000C94A9060C944700B8
S11300400C9447000C9447000C9447000C94470010
S11300500C94470011241FBECFE5D4E0DEBFCDBF12
S113006011E0A0E6B0E0E2E0F0E102C005900D92FC
S1130070A230B107D9F711E0A2E0B1E001C01D92AE
S1130080A832B107E1F70E9486070C94FF070C948D
S1130090000087B3807F87BBC59AC49800C000C0A6
S11300A0C69A00C000C086B38295807F00C000C09D
S11300B0C69892E09A95F1F700C0C69A00C000C0B5
S11300C096B300C000C0C69892E09A95F1F700C0BC
S11300D0882334F3C59887B38F6087BB0895282F8E
S11300E022952F708F70662311F4C49801C0C49AAE
S11300F000C000C0C69A98B3907F922B98BB92E040
S11301009A95F1F700C0C69892E09A95F1F700C06D
S1130110C69A98B3907F892B88BB82E08A95F1F7C1
S113012000C0C69892E09A95F1F700C00E94490079
S11301300895CF93C82F8FE59AEE0197F1F700C089
S1130140000087B38F6087BBBE9ABC9ABD9A88B300
S1130150807F88BBC698C598C49800C00000C69A22
S1130160C19A92E09A95F1F700C0C69882E08A9508
S1130170F1F700C00E9449008C2F8C6060E00E945F
S11301806F0088E260E00E946F00CF910895CF93E2
S1130190DF93EC018881882339F0219661E00E9485
S11301A06F0089918823D1F7DF91CF910895EF9261
S11301B0FF920F931F93CF93DF9300D000D00F9241
S11301C0CDB7DEB77B01FE01319625E0DF011D923C
S11301D02A95E9F7009761F0FE0136962AE030E0AF
S11301E0B9010E94D8078293862F972F0097C1F7F1
S11301F0BFEFEB16BFEFFB0669F42981222379F4E4
S1130200FE01329600E010E00F5F1F4F2191222380
S1130210D9F307C005E010E00E191F0902C000E081
S113022010E0992324F48DE261E00E946F00053010
S11302301105BCF4E1E0F0E0EC0FFD1F0E0F1F1FF1
S11302400F2EF6E0EF2EFF24F02DEC0EFD1ED8014C
S11302508D918D01805D61E00E946F000E151F0578
S1130260B1F70F900F900F900F900F90DF91CF91F7
S11302701F910F91FF90EF900895883230F461112F
S11302808064806860E00E946F0008951F920F925E
S11302900FB60F9211248F939F9380912401909114
S11302A02501809124019091250180912201909152
S11302B0230180912201909123019F918F910F90AE
S11302C00FBE0F901F9018951F920F920FB60F92AA
S11302D011240F900FBE0F901F9018951F920F922C
S11302E00FB60F9211240F900FBE0F901F90189508
S11302F01BB888E08AB986E880BD10BC8FE089B954
S113030008958C9A88E784BB81B3837F81BB9498DA
S1130310AE9A80E687B98DE886B980E48BBF81E028
S113032085BF1FBC82E08EBD85BD84E489BF80E0AB
S11303300E9499000E9478010895CF93DF938CE086
S113034060E00E946F0081E060E00E946F0086E040
S113035060E00E943D0180E690E00E94C7008FEFBC
S113036092E5A7E081509040A040E1F700C0000072
S1130370C2E6D0E0CE010E94C7008FEF92E5A7E06D
S113038081509040A040E1F700C0000084E690E076
S11303900E94C7008FEF92E5A7E081509040A040F3
S11303A0E1F700C00000CE010E94C7008FEF92E584
S11303B0A7E081509040A040E1F700C0000081E038
S11303C061E00E943D0186E690E00E94C7008FEF45
S11303D09EE9A4E281509040A040E1F700C00000F3
S11303E088E060E00E946F00DF91CF9108955D9BEB
S11303F0FECF949A94988CB90895CF93DF93D62F17
S1130400C42F0E94F7018D2F0E94F7018C2F0E94A8
S1130410F701DF91CF9108954091FB005091FC00CA
S113042020911E0130911F0142175307F1F0AB9A3E
S1130430FC01389687E090E03197DF012081213379
S113044009F4AC9A2C91203309F4AC98AD9AAD9888
S113045001972FEF8F3F920779F780911E019091BA
S11304601F019093FC008093FB0080E090E00895CE
S1130470089508958091FF009091000188309105BE
S1130480BCF48091FF0090910001019690930001CB
S11304908093FF008FEF91EEA4E081509040A04044
S11304A0E1F700C000008091FF00909100010895E1
S11304B08091FF009091000188309105A4F081E0C3
S11304C090E0909300018093FF008FEF91EEA4E001
S11304D081509040A040E1F700C000008091FF00EF
S11304E090910001089581E060E00E946F0085E72B
S11304F090E00E94C70080E090E0089580911E0182
S113050090911F018430910509F4C9C0853091058B
S11305106CF48230910509F452C0833091050CF0DB
S113052086C08130910509F0D0C111C08630910593
S113053009F425C1863091050CF4E9C08730910592
S113054009F455C18830910509F0BFC188C1809173
S11305501801909119010097A9F483E890E00E9492
S11305600C026091E9007091EA0080E84FE70E9474
S1130570FD016091F7007091F80080E94FE70E9457
S1130580FD01089580911801909119018130910520
S113059009F09BC18CE890E00E940C026091E90094
S11305A07091EA0080E84FE70E94FD016091F70036
S11305B07091F80080E84FE70E94FD010895809152
S11305C01601909117010097A9F485E990E00E9423
S11305D00C026091F7007091F80080E84FE70E94E8
S11305E0FD016091F5007091F60080E94FE70E94EB
S11305F0FD010895809116019091170181309105B4
S113060009F063C18CE890E00E940C026091F7004D
S11306107091F80080E84FE70E94FD016091F500B9
S11306207091F60080E84FE70E94FD0108958091E3
S11306301401909115010097A9F48EE990E00E94AD
S11306400C026091F5007091F60080E84FE70E947B
S1130650FD016091F3007091F40080E94FE70E947E
S1130660FD01089580911401909115018130910547
S113067009F02BC18CE890E00E940C026091F50017
S11306807091F60080E84FE70E94FD016091F3004D
S11306907091F40080E84FE70E94FD010895809175
S11306A01201909113010097A9F487EA90E00E9447
S11306B00C026091F3007091F40080E84FE70E940F
S11306C0FD016091F1007091F20080E94FE70E9412
S11306D0FD010895809112019091130181309105DB
S11306E009F0F3C08CE890E00E940C026091F300E2
S11306F07091F40080E84FE70E94FD016091F100E1
S11307007091F20080E84FE70E94FD010895809106
S11307101001909111010097A9F480EB90E00E94E0
S11307200C026091F1007091F20080E84FE70E94A2
S1130730FD016091EF007091F00080E94FE70E94A5
S1130740FD0108958091100190911101813091056E
S113075009F0BBC08CE890E00E940C026091F100AB
S11307607091F20080E84FE70E94FD016091EF0074
S11307707091F00080E84FE70E94FD010895809198
S11307800E0190910F010097A9F48AEB90E00E946A
S11307900C026091EF007091F00080E84FE70E9436
S11307A0FD016091ED007091EE0080E94FE70E9439
S11307B0FD01089580910E0190910F018130910502
S11307C009F083C08CE890E00E940C026091EF0075
S11307D07091F00080E84FE70E94FD016091ED0008
S11307E07091EE0080E84FE70E94FD01089580912A
S11307F00C0190910D010097A9F483EC90E00E9404
S11308000C026091ED007091EE0080E84FE70E94C9
S1130810FD016091EB007091EC0080E94FE70E94CC
S1130820FD01089580910C0190910D018130910595
S113083009F04BC08CE890E00E940C026091ED003E
S11308407091EE0080E84FE70E94FD016091EB009B
S11308507091EC0080E84FE70E94FD0108958091BB
S11308600A0190910B010097A9F48CEC90E00E948E
S11308700C026091EB007091EC0080E84FE70E945D
S1130880FD016091E9007091EA0080E94FE70E9460
S1130890FD01089580910A0190910B018130910529
S11308A0A1F48CE890E00E940C026091EB0070913E
S11308B0EC0080E84FE70E94FD016091E90070912F
S11308C0EA0080E84FE70E94FD01089580911E012F
S11308D090911F0184309105B9F1853091055CF444
S11308E082309105F9F0833091052CF58130910522
S11308F009F056C00EC086309105C1F186309105CD
S113090064F187309105D9F18830910509F048C028
S11309103FC06091F7007091F80080E84FE70E94B3
S1130920FD0108956091F5007091F60080E84FE7AD
S11309300E94FD0108956091F3007091F40080E835
S11309404FE70E94FD0108956091F1007091F2005B
S113095080E84FE70E94FD0108956091EF007091D7
S1130960F00080E84FE70E94FD0108956091ED00DA
S11309707091EE0080E84FE70E94FD0108956091B8
S1130980EB007091EC0080E84FE70E94FD010895B0
S11309906091E9007091EA0080E84FE70E94FD0150
S11309A008959F9B65C183B390E090932101809348
S11309B02001809120019091210187709070909383
S11309C021018093200181E060E00E946F0080910A
S11309D0200190912101009709F58091020188235B
S11309E009F046C180910A0190910B01009739F4F6
S11309F081E090E090930B0180930A010BC08091F9
S1130A000A0190910B018130910521F410920B01A0
S1130A1010920A0181E0809302012AC18091200191
S1130A20909121018130910509F58091030188237A
S1130A3009F01EC180910C0190910D01009739F4C9
S1130A4081E090E090930D0180930C010BC08091A4
S1130A500C0190910D018130910521F410920D014A
S1130A6010920C0181E08093030102C18091200166
S1130A70909121018230910509F580910401882328
S1130A8009F0F6C080910E0190910F01009739F49E
S1130A9081E090E090930F0180930E010BC0809150
S1130AA00E0190910F018130910521F410920F01F4
S1130AB010920E0181E080930401DAC0809120013C
S1130AC0909121018330910509F5809105018823D6
S1130AD009F0CEC08091100190911101009739F472
S1130AE081E090E090931101809310010BC08091FC
S1130AF01001909111018130910521F4109211019E
S1130B001092100181E080930501B2C08091200110
S1130B10909121018430910509F580910601882383
S1130B2009F0A6C08091120190911301009739F445
S1130B3081E090E090931301809312010BC08091A7
S1130B401201909113018130910521F41092130147
S1130B501092120181E0809306018AC080912001E5
S1130B60909121018530910509F580910701882331
S1130B7009F07EC08091140190911501009739F419
S1130B8081E090E090931501809314010BC0809153
S1130B901401909115018130910521F410921501F1
S1130BA01092140181E08093070162C080912001BA
S1130BB0909121018630910509F5809108018823DF
S1130BC009F056C08091160190911701009739F4ED
S1130BD081E090E090931701809316010BC08091FF
S1130BE01601909117018130910521F4109217019B
S1130BF01092160181E0809308013AC0809120018F
S1130C00909121018730910501F580910901882394
S1130C1079F58091180190911901009739F481E0D8
S1130C2090E090931901809318010BC080911801F2
S1130C30909119018130910521F4109219011092BB
S1130C40180181E08093090113C0109209011092E8
S1130C5008011092070110920601109205011092EA
S1130C600401109203011092020180E090E00895C3
S1130C70B7990BC00E9466040E943A029093000147
S1130C808093FF0089E090E0089584E690E0089561
S1130C901F920F920FB60F9211242F933F934F93ED
S1130CA05F936F937F938F939F93AF93BF93EF93D0
S1130CB0FF930E94660480911C0190911D0101968E
S1130CC090931D0180931C0180911C0190911D0142
S1130CD0823091052CF110921D0110921C010E948A
S1130CE07E02949A80911E0190911F018830910593
S1130CF054F480911E0190911F01019690931F015D
S1130D0080931E010DC080911E0190911F018830B7
S1130D10910534F081E090E090931F0180931E01CF
S1130D2080911C0190911D018830910509F49498DB
S1130D30FF91EF91BF91AF919F918F917F916F91AF
S1130D405F914F913F912F910F900FBE0F901F9085
S1130D5018951F920F920FB60F9211242F933F9361
S1130D604F935F936F937F938F939F93AF93BF93AF
S1130D70EF93FF930E94660485B190E0909327015E
S1130D80809326018091260190912701969587955D
S1130D9090932701809326018091FF009091000198
S1130DA08430910509F43FC0853091055CF48230AC
S1130DB0910519F1833091055CF58130910509F0B5
S1130DC068C010C08630910509F443C0863091058F
S1130DD0ACF18730910509F447C08830910509F0DA
S1130DE058C04DC080E687B98091260190912701B3
S1130DF09093F8008093F7004CC081E687B9809106
S1130E002601909127019093F6008093F50041C04C
S1130E1082E687B980912601909127019093F4008E
S1130E208093F30036C083E687B9809126019091C0
S1130E3027019093F2008093F1002BC084E687B9D8
S1130E4080912601909127019093F0008093EF0008
S1130E5020C085E687B9809126019091270190935F
S1130E60EE008093ED0015C086E687B980912601D7
S1130E70909127019093EC008093EB000AC087E6E1
S1130E8087B980912601909127019093EA0080937D
S1130E90E900FF91EF91BF91AF919F918F917F9165
S1130EA06F915F914F913F912F910F900FBE0F90D3
S1130EB01F90189582E060E00E946F0085ED90E03D
S1130EC00E94C7008FE060E00E943D018091FF0016
S1130ED09091000161E070E00E94D70080E061E041
S1130EE00E943D0185EE90E00E94C700369A369933
S1130EF0FECF83E061E00E943D0180912601909144
S1130F00270163E070E00E94D70008950E948101E8
S1130F108FEF94E3ACE081509040A040E1F700C033
S1130F2000000E949D0178948CE060E00E946F00B4
S1130F3081E060E00E946F00CCECD0E00E94D1041C
S1130F409093FE008093FD000E945A078091240133
S1130F50909125018130910589F78091220190912A
S1130F602301009749F48091FF00909100010196BC
S1130F70909300018093FF008091220190912301BE
S1130F8081309105D9F6CE010E940C02D7CF80E6BC
S1130F9087B981E687B982E687B983E687B984E6AB
S1130FA087B985E687B986E687B987E687B908955C
S1130FB097FB092E07260AD077FD04D00CD006D063
S1130FC000201AF4709561957F4F0895F6F7909577
S1130FD081959F4F0895AA1BBB1B51E107C0AA1F0F
S1130FE0BB1FA617B70710F0A61BB70B881F991FC6
S1130FF05A95A9F780959095BC01CD010895F89470
S1051000FFCF1C
S11310024D0049004400436F6E74726F6C20446556
S11310127669636500506F7453656C204552524F74
S11310225221003130303030303030003030303006
S11310323030303000303130303030303000303009
S113104231303030303000303030313030303000F8
S113105230303030313030303000303030303031B8
S113106230300030303030303031300030303030D9
S11310723030303100436F6E74726F6C204E756D78
S1131082626572200043433A003C003C003C003C51
S1131092003C003C003C003C00FFFFFFFF0100015C
S10510A2000048
S9030000FC
